:020000040800F2
:100000000000052479160008651100086D1100082C
:10001000751100087D11000885110008000000001E
:1000200000000000000000000000000001A7000820
:100030008D1100080000000051A900089B11000864
:10004000CD160008CD160008CD160008CD16000804
:10005000CD160008B5110008CD160008CD16000811
:10006000CD160008CD160008CD160008C5110008F1
:10007000D9110008CD160008CD160008CD160008CD
:10008000CD160008CD160008CD160008CD160008C4
:10009000CD160008CD160008CD160008CD160008B4
:1000A000CD160008CD160008CD160008CD160008A4
:1000B000CD160008CD160008CD160008CD16000894
:1000C000CD160008CD160008CD160008ED11000869
:1000D00001120008CD160008CD160008CD16000844
:1000E000CD160008CD16000800000000CD1600084F
:1000F000CD160008CD160008CD160008CD16000854
:10010000CD160008CD160008CD160008CD16000843
:10011000CD160008CD160008CD160008CD16000833
:10012000CD160008CD160008CD160008CD16000823
:10013000CD160008CD160008CD160008CD16000813
:1001400000000000000000000000000000000000AF
:10015000CD160008CD160008CD160008CD160008F3
:10016000CD160008CD160008CD160008CD160008E3
:10017000CD160008CD160008CD16000800000000BE
:10018000CD160008CD160008CD160008CD160008C3
:10019000CD160008CD160008CD160008CD160008B3
:1001A000CD160008CD160008CD160008000000008E
:1001B000CD160008CD160008CD160008CD16000893
:1001C000CD160008CD160008000000000000000059
:1001D0000000000000000000CD1600080000000034
:1001E000000000000000000000000000000000000F
:1001F0000000000000000000CD160008CD16000829
:10020000CD160008CD16000800000000CD1600082D
:10021000CD160008CD160008CD160008CD16000832
:10022000CD16000800000000CD16000800000000F8
:10023000CD160008CD16000800000000CD160008FD
:10024000CD160008CD160008CD160008CD16000802
:10025000CD160008CD160008CD160008CD160008F2
:10026000CD160008CD160008CD160008CD160008E2
:10027000CD160008CD160008CD16000800000000BD
:10028000CD160008CD160008CD160008CD160008C2
:1002900000000000CD160008CD1600080000000088
:1002A00000000000CD160008CD160008CD1600088D
:1002B000CD160008CD160008CD160008CD16000892
:0C02C000CD160008CD160008CD16000871
:1002D00010B5054C237833B9044B13B10448AFF380
:1002E00000800123237010BD005B02240000000089
:1002F0004C86030808B5034B1BB103490348AFF311
:10030000008008BD00000000045B02244C86030846
:1003100001F0FF01102A2BDB10F0070F08D010F8B6
:10032000013B013A8B422DD010F0070F42B3F6D1BA
:10033000F0B441EA012141EA014122F007047FF0D3
:1003400000070023F0E80256083C85EA010586EA2A
:10035000010685FA47F5A3FA87F586FA47F6A5FA66
:1003600087F68EB9EED1F0BC01F0FF0102F0070272
:1003700032B110F8013B013A83EA010313B1F8D11D
:100380000020704701387047002D06BF35460338FE
:10039000073815F0010F07D1013015F4807F02BF37
:1003A000013015F4C03F0130F0BC0138704700BF88
:1003B00081F0004102E000BF83F0004330B54FEA16
:1003C00041044FEA430594EA050F08BF90EA020F83
:1003D0001FBF54EA000C55EA020C7FEA645C7FEA16
:1003E000655C00F0E2804FEA5454D4EB5555B8BF39
:1003F0006D420CDD2C4480EA020281EA030382EAAA
:10040000000083EA010180EA020281EA0303362D3B
:1004100088BF30BD11F0004F4FEA01314FF4801C0E
:100420004CEA113102D0404261EB410113F0004F20
:100430004FEA03334CEA133302D0524263EB4303D7
:1004400094EA050F00F0A780A4F10104D5F1200E75
:100450000DDB02FA0EFC22FA05F2801841F10001D0
:1004600003FA0EF2801843FA05F359410EE0A5F1A4
:1004700020050EF1200E012A03FA0EFC28BF4CF0D5
:10048000020C43FA05F3C01851EBE37101F000458B
:1004900007D54FF0000EDCF1000C7EEB00006EEB98
:1004A0000101B1F5801F1BD3B1F5001F0CD3490822
:1004B0005FEA30004FEA3C0C04F101044FEA445279
:1004C00012F5800F80F09A80BCF1004F08BF5FEA00
:1004D000500C50F1000041EB045141EA050130BDE0
:1004E0005FEA4C0C404141EB0101013C28BFB1F5F2
:1004F000801FE9D291F0000F04BF01460020B1FA3D
:1005000081F308BF2033A3F10B03B3F120020CDA0F
:100510000C3208DD02F1140CC2F10C0201FA0CF0ED
:1005200021FA02F10CE002F11402D8BFC2F1200C52
:1005300001FA02F120FA0CFCDCBF41EA0C01904008
:10054000E41AA2BF01EB0451294330BD6FEA040451
:100550001F3C1CDA0C340EDC04F11404C4F120023C
:1005600020FA04F001FA02F340EA030021FA04F34E
:1005700045EA030130BDC4F10C04C4F1200220FAA5
:1005800002F001FA04F340EA0300294630BD21FAE3
:1005900004F0294630BD94F0000F83F4801306BFA9
:1005A00081F480110134013D4EE77FEA645C18BF9D
:1005B0007FEA655C29D094EA050F08BF90EA020F34
:1005C00005D054EA000C04BF1946104630BD91EA2C
:1005D000030F1EBF0021002030BD5FEA545C05D12F
:1005E0004000494128BF41F0004130BD14F580046E
:1005F0003CBF01F5801130BD01F0004545F0FE41E2
:1006000041F470014FF0000030BD7FEA645C1ABF16
:10061000194610467FEA655C1CBF0B46024650EA4D
:10062000013406BF52EA033591EA030F41F4002179
:1006300030BD00BF90F0000F04BF0021704730B5FF
:100640004FF4806404F132044FF000054FF00001D4
:1006500050E700BF90F0000F04BF0021704730B595
:100660004FF4806404F1320410F0004548BF40426A
:100670004FF000013EE700BF42004FEAE2014FEABF
:1006800031014FEA02701FBF12F07F4393F07F4F9A
:1006900081F06051704732F07F4208BF704793F09D
:1006A0007F4F04BF41F40021704730B54FF46074B0
:1006B00001F0004521F000411CE700BF50EA0102B3
:1006C00008BF704730B54FF000050AE050EA01025C
:1006D00008BF704730B511F0004502D5404261EBCC
:1006E00041014FF4806404F132045FEA915C3FF40D
:1006F000D8AE4FF003025FEADC0C18BF03325FEAAA
:10070000DC0C18BF033202EBDC02C2F1200300FA5A
:1007100003FC20FA02F001FA03FE40EA0E0021FA7F
:1007200002F11444BDE600BF80B58CB000AF07F104
:10073000240300221A605A609A603B46242200215A
:10074000184637F06CF9324B324A1A60304B0022AF
:100750005A602F4B00229A602D4B00221A612C4BBD
:1007600004225A612A4B00221A76294B00225A761B
:10077000274B0122DA61264B002283F82020244BEC
:1007800000229A62224B0022DA62214B00221A6375
:100790001F4B0022DA631E4B00221A641C4B0022FE
:1007A00083F844201A4B01229A64194801F0A2FAF6
:1007B0000346002B01D000F081FA00237B6207F191
:1007C00024031946124802F085FA0346002B01D093
:1007D00000F074FA104B3B6006237B600023BB6083
:1007E00040F2FF73FB6004233B6100237B61002325
:1007F00087F821303B461946054801F083FC034643
:10080000002B01D000F05AFA00BF3037BD4680BD42
:100810001C5B0224002002400000214380B5B8B0D8
:1008200000AF786007F1CC0300221A605A609A602A
:10083000DA601A6107F11003B8220021184637F078
:10084000EEF87B681B682B4A93424FD14FF400228D
:100850004FF00003C7E904230423BB610C23FB61B1
:1008600002233B6202237B620223BB62C023FB6242
:1008700000233B6300237B630023C7F8B03007F1FC
:100880001003184605F0D2FD0346002B01D000F0FE
:1008900015FA194BD3F8D830174A43F02003C2F8A1
:1008A000D830154BD3F8D83003F02003FB60FB6839
:1008B000114BD3F8E030104A43F00103C2F8E030A6
:1008C0000D4BD3F8E03003F00103BB60BB6801239C
:1008D000C7F8CC300323C7F8D0300023C7F8D43092
:1008E00007F1CC031946054804F054FC00BFE0377B
:1008F000BD4680BD0020024000440258000002585E
:1009000080B500AF0D4B0E4A1A600C4B00221A71D5
:100910000A4B00225A71094B00225A61074B0022F0
:100920009A61064B01221A62044802F03DFC03461C
:10093000002B01D000F0C2F900BF80BD8C5B022407
:10094000004C025880B485B000AF78607B681B68AB
:100950000B4A93420ED10B4BD3F8E030094A43F4D3
:100960000023C2F8E030074BD3F8E03003F4002353
:10097000FB60FB6800BF1437BD465DF8047B704721
:10098000004C02580044025880B582B000AF114BB1
:10099000D3F8D8300F4A43F00103C2F8D8300D4BDA
:1009A000D3F8D83003F001037B607B680022052177
:1009B0000B2002F04CFB0B2002F063FB0022052110
:1009C0000C2002F044FB0C2002F05BFB00BF083758
:1009D000BD4680BD0044025880B500AF084A0221E0
:1009E000102009F081FA0346064A1360064A0021E6
:1009F000064809F0ADF80346054A136000BF80BD04
:100A000094950308B45B022470950308150A000846
:100A1000B05B022480B582B000AF7860012009F09D
:100A200029F9FBE780B58AB000AF07F11403002273
:100A30001A605A609A60DA601A613D4BD3F8E03070
:100A40003B4A43F08003C2F8E030394BD3F8E03042
:100A500003F080033B613B69354BD3F8E030344A07
:100A600043F00403C2F8E030314BD3F8E03003F038
:100A70000403FB60FB682E4BD3F8E0302C4A43F0B4
:100A80000103C2F8E0302A4BD3F8E03003F0010351
:100A9000BB60BB68264BD3F8E030254A43F0020325
:100AA000C2F8E030224BD3F8E03003F002037B6061
:100AB0007B681F4BD3F8E0301D4A43F00803C2F8AF
:100AC000E0301B4BD3F8E03003F008033B603B6899
:100AD00000220621174804F005FD4FF470637B6186
:100AE0000023BB610023FB6107F114031946124880
:100AF00004F050FB06237B610123BB610023FB61F3
:100B000000233B6207F1140319460A4804F042FB34
:100B100008237B610023BB610023FB6107F1140301
:100B20001946044804F036FB00BF2837BD4680BD97
:100B300000440258000C02580000025880B500AF73
:100B400000F090F800F0C4FD00F01CF8FFF76AFF19
:100B5000FFF71AFFFFF7E8FDFFF7D2FE00F0B4F849
:100B600000F008F900F0C4FC00F016FD0CF04FFB9B
:100B70000CF046FB08F0A2FFFFF72EFF08F0C2FFC3
:100B800000BFFDE780B59CB000AF07F124034C2205
:100B90000021184636F043FF3B1D20220021184655
:100BA00036F03DFF022004F0B7FC00233B602C4BE5
:100BB0009B692B4A23F440439361294B9B6903F4BF
:100BC00040433B603B6800BF254B9B6903F40053E7
:100BD000B3F5005FF8D102237B6201233B6340231E
:100BE0007B630223BB640023FB6404233B65222355
:100BF0007B650123BB650323FB6502233B660C2356
:100C00007B660023BB664FF44063FB6607F1240359
:100C1000184604F0BBFC0346002B01D000F04EF850
:100C20003F237B600323BB600023FB6008233B6101
:100C300040237B614023BB614FF48063FB61402311
:100C40003B623B1D0321184605F07AF80346002B52
:100C500001D000F033F800BF7037BD4680BD00BF43
:100C60000048025880B584B000AF3B4600221A60AD
:100C70005A609A60DA6002F01FFA01233B70002389
:100C80007B7000237B601F233B7287237B720023D2
:100C9000BB720023FB7201233B7301237B73002390
:100CA000BB730023FB733B46184602F03DFA042059
:100CB00002F01AFA00BF1037BD4680BD80B400AF05
:100CC00072B600BF00BFFDE780B500AF274B284AD2
:100CD0001A60264B4FF480025A60244B00229A601F
:100CE000224B0722DA60214B00221A611F4B00229F
:100CF0005A611E4B4FF080629A611C4B4FF040527C
:100D0000DA611A4B00221A62184B00225A62174B02
:100D100000229A62154B0022DA62144B4FF0804297
:100D20005A63124B00229A63104B0022DA630F4B76
:100D300000221A640D4B00225A640C4B00229A6464
:100D40000A4B0022DA64094B00221A65074B002285
:100D50005A65064B00229A65044807F04DFF03468A
:100D6000002B01D0FFF7AAFF00BF80BDB85B0224B3
:100D70000030014080B500AF274B284A1A60264B4F
:100D80004FF480025A60244B00229A60224B0722C3
:100D9000DA60214B00221A611F4B00225A611E4B60
:100DA0004FF080629A611C4B4FF0C042DA611A4BDF
:100DB00000221A62184B00225A62174B00229A62D4
:100DC000154B0022DA62144B4FF080425A63124BEB
:100DD00000229A63104B0022DA630F4B00221A6440
:100DE0000D4B00225A640C4B00229A640A4B0022DD
:100DF000DA64094B00221A65074B00225A65064B3C
:100E000000229A65044807F0F7FE0346002B01D044
:100E1000FFF754FF00BF80BD405C02240038004053
:100E200080B5BCB000AF786007F1DC0300221A6027
:100E30005A609A60DA601A6107F12003B822002133
:100E4000184636F0ECFD7B681B68A94A934240F0D7
:100E5000A2804FF480524FF00003C7E9082300231B
:100E6000FB6707F12003184605F0E0FA0346002B64
:100E700001D0FFF723FF9F4BD3F8F0309D4A43F496
:100E80008053C2F8F0309B4BD3F8F03003F480531A
:100E9000FB61FB69974BD3F8E030964A43F00103BE
:100EA000C2F8E030934BD3F8E03003F00103BB61AC
:100EB000BB69904BD3F8E0308E4A43F00203C2F88E
:100EC000E0308C4BD3F8E03003F002037B617B69A8
:100ED000A023C7F8DC300223C7F8E0300023C7F8AE
:100EE000E4300023C7F8E8300523C7F8EC3007F1F9
:100EF000DC031946804804F04DF91023C7F8DC30B4
:100F00000223C7F8E0300023C7F8E4300023C7F815
:100F1000E8300523C7F8EC3007F1DC0319467748C1
:100F200004F038F9764B774A1A60754B26225A60DE
:100F3000734B40229A60724B0022DA60704B4FF480
:100F400080621A616E4B4FF400625A616C4B4FF431
:100F500000529A616A4B4FF48072DA61684B00224A
:100F60001A62674B00225A62654802F00FFA034684
:100F7000002B01D0FFF7A2FE7B68614A9A67604AA6
:100F80007B68936300220521232002F060F8232070
:100F900002F077F8A7E07B681B685B4A934240F059
:100FA000A2804FF480524FF00003C7E908230023CA
:100FB000FB6707F12003184605F038FA0346002BBB
:100FC00001D0FFF77BFE4B4BD3F8E830494A43F49E
:100FD0008043C2F8E830474BD3F8E83003F480434D
:100FE0003B613B69434BD3F8E030424A43F0040392
:100FF000C2F8E0303F4BD3F8E03003F00403FB606D
:10100000FB683C4BD3F8E0303A4A43F00203C2F8A5
:10101000E030384BD3F8E03003F00203BB60BB682C
:101020000623C7F8DC300223C7F8E0300023C7F8F6
:10103000E4300023C7F8E8300523C7F8EC3007F1A7
:10104000DC031946314804F0A5F84FF48063C7F873
:10105000DC300223C7F8E0300023C7F8E430002377
:10106000C7F8E8300523C7F8EC3007F1DC03194670
:10107000224804F08FF8264B264A1A60244B272278
:101080005A60234B00229A60214B0022DA60204BE9
:101090004FF480621A611E4B4FF400625A611C4B80
:1010A0004FF400529A611A4B4FF48072DA61184B78
:1010B00000221A62164B00225A62154802F066F9A5
:1010C0000346002B01D0FFF7F9FD7B68104ADA6771
:1010D0000F4A7B68936300220521242001F0B7FFAB
:1010E000242001F0CEFF00BFF037BD4680BD00BF19
:1010F0000030014000440258000002580004025829
:10110000C85C022410000240003800400008025869
:10111000405D02242800024080B582B000AF104B31
:10112000D3F8F4300E4A43F00203C2F8F4300C4B0B
:10113000D3F8F43003F002037B607B6800220F21B8
:101140006FF0010001F083FF00220521052001F06E
:101150007EFF052001F095FF00BF0837BD4680BD2A
:101160000044025880B400AF00BFFDE780B400AF78
:1011700000BFFDE780B400AF00BFFDE780B400AF63
:1011800000BFFDE780B400AF00BFFDE780B400AF53
:1011900000BFBD465DF8047B704780B500AF00F02E
:1011A00009FB0BF0F1FA0346012B01D009F004FC16
:1011B00000BF80BD80B400AF00BFBD465DF8047BBA
:1011C0007047000080B500AF024802F07DFE00BF0E
:1011D00080BD00BFC85C022480B500AF024802F0A9
:1011E00073FE00BF80BD00BF405D022480B500AF2C
:1011F000024807F025FE00BF80BD00BFB85B022497
:1012000080B500AF024807F01BFE00BF80BD00BFE5
:10121000405C022480B400AF01231846BD465DF84F
:10122000047B704780B582B000AF7860396036F0DB
:1012300099FC034616221A604FF0FF331846083710
:10124000BD4680BD80B582B000AF78604FF0FF3101
:101250007868FFF7E7FF00BFFDE780B586B000AF15
:10126000F860B9607A6000237B610AE0AFF3008028
:101270000146BB685A1CBA60CAB21A707B69013356
:101280007B617A697B689A42F0DB7B681846183785
:10129000BD4680BD80B586B000AFF860B9607A60A9
:1012A00000237B6109E0BB685A1CBA601B781846B2
:1012B000AFF300807B6901337B617A697B689A4276
:1012C000F1DB7B6818461837BD4680BD80B483B01B
:1012D00000AF78604FF0FF3318460C37BD465DF81D
:1012E000047B704780B483B000AF786039603B689E
:1012F0004FF400525A60002318460C37BD465DF883
:10130000047B704780B483B000AF78600123184637
:101310000C37BD465DF8047B704780B485B000AFE4
:10132000F860B9607A60002318461437BD465DF84E
:10133000047B704780B586B000AF7860144A154BC7
:10134000D31A7B617B693B61134B1B68002B02D175
:10135000114B124A1A60104B1A687B6813443A69A1
:101360009A4207D236F0FEFB03460C221A604FF079
:10137000FF3309E0084B1B68FB60074B1A687B686A
:101380001344054A1360FB6818461837BD4680BDF4
:101390000000052400040000B85D022420CD0224D2
:1013A00080B400AF3E4BD3F888303D4A43F470031D
:1013B000C2F888303B4B1B6803F00F03062B07D89D
:1013C000384B1B6823F00F03364A43F007031360C2
:1013D000354B1B68344A43F001031360324B002243
:1013E0001A61314B1A683049304B13400B602D4B5A
:1013F0001B6803F00803002B07D02A4B1B6823F05F
:101400000F03284A43F007031360274B00229A6119
:10141000254B0022DA61244B00221A62224B244A17
:101420009A62214B234ADA621F4B234A1A631E4BEE
:1014300000225A631C4B204A9A631B4B0022DA633A
:10144000194B1D4A1A64184B00225A64164B1B682C
:10145000154A23F480231360134B00221A66124BA3
:10146000D3F8D43003F48053002B13D10E4BD3F8B0
:10147000D4300D4A43F48053C2F8D4300F4B43F2BA
:10148000D2021A60084BD3F8D430074A23F48053B1
:10149000C2F8D43000BFBD465DF8047B704700BF82
:1014A00000ED00E000200052004402587FEDF6EA13
:1014B000000202020000FF01800201010040005210
:1014C00080B400AF094BDB68084A43F00203D360E5
:1014D00000BF064B5B6803F40053002BF9D000BF3C
:1014E00000BFBD465DF8047B704700BF004802584E
:1014F00080B588B000AF07F1100300221A605A606F
:101500009A60DA603B1D00221A605A609A60204B94
:10151000204A1A601E4B00225A601D4B00229A601E
:101520001B4B4FF6FF72DA60194B00221A61184B01
:1015300000225A61164B00229A61154807F055FFA8
:101540000346002B01D0FFF7B9FB4FF480533B61FA
:1015500007F1100319460E4807F09EFF0346002BC3
:1015600001D0FFF7ABFB00237B600023BB600023AF
:10157000FB603B1D1946064808F0D0F90346002BD6
:1015800001D0FFF79BFB00BF2037BD4680BD00BFE9
:10159000BC5D02240000014080B584B000AF3B1D5B
:1015A00000221A605A609A60144B154A1A60134B55
:1015B0001B225A60114B00229A60104B3122DA60D4
:1015C0000E4B00229A610D4807F00FFF0346002BD7
:1015D00001D0FFF773FB20237B600023FB603B1DE2
:1015E0001946064808F09AF90346002B01D0FFF788
:1015F00065FB00BF1037BD4680BD00BF085E0224FA
:101600000010004080B485B000AF78607B681B6834
:10161000164A93420FD1164BD3F8F030144A43F0D8
:101620000103C2F8F030124BD3F8F03003F001039D
:10163000FB60FB6813E07B681B680E4A93420ED187
:101640000B4BD3F8E8300A4A43F01003C2F8E830F5
:10165000074BD3F8E83003F01003BB60BB6800BF52
:101660001437BD465DF8047B704700BF00000140A1
:101670000044025800100040DFF838D0FFF720FF88
:10168000FFF78EFE0C480D490D4A002302E0D458A6
:10169000C4500433C4188C42F9D30A4A0A4C0023BC
:1016A00001E013600432A242FBD336F061FAFFF787
:1016B00045FA70470000052400000024FC000024C7
:1016C00074A90708005B022420CD0224FEE7000075
:1016D00080B582B000AF032001F0AEFC04F0E6FC60
:1016E0000246154B9B691B0A03F00F031349CB5CA1
:1016F00003F01F0322FA03F37B600F4B9B6903F097
:101700000F030E4AD35C03F01F037A6822FA03F337
:101710000B4A13600B4A7B6813600F2000F014F82B
:101720000346002B01D0012302E0FFF7F5FC002364
:1017300018460837BD4680BD00440258AC950308E2
:10174000080000240400002480B582B000AF786057
:10175000154B1B78002B01D1012321E0134B1A6894
:10176000114B1B7819464FF47A73B3FBF1F3B2FBBC
:10177000F3F3184601F093FC0346002B01D001233C
:101780000EE07B680F2B0AD8002279684FF0FF30FB
:1017900001F05DFC064A7B681360002300E0012332
:1017A00018460837BD4680BD100000240400002400
:1017B0000C00002480B400AF064B1B781A46064B81
:1017C0001B681344044A136000BFBD465DF8047BE8
:1017D000704700BF10000024545E022480B400AFA4
:1017E000034B1B681846BD465DF8047B704700BF7D
:1017F000545E022480B483B000AF786039607B68A7
:101800009B6823F47C123B681A437B689A6000BF94
:101810000C37BD465DF8047B704780B483B000AFE1
:10182000786039607B689B6823F0E0723B681A43FC
:101830007B689A6000BF0C37BD465DF8047B70473B
:1018400080B483B000AF78607B689B6803F0E0737E
:1018500018460C37BD465DF8047B704780B487B0EE
:1018600000AF786039607B68184A934227D03B68A4
:10187000C3F31303002B07D13B689B0E03F01F0338
:10188000012202FA03F315E03B683B613B6993FADE
:10189000A3F3FB60FB687B617B69002B01D12023F4
:1018A00003E07B69B3FA83F3DBB203F01F03012289
:1018B00002FA03F37A68D2691A437B68DA6100BFDF
:1018C0001C37BD465DF8047B704700BF00600258BE
:1018D00080B487B000AFF860B9607A603B60FB68A5
:1018E00060331A46BB689B0013447B61FB68104A57
:1018F00093420BD17B691B687B6803F0F8423B681D
:10190000134343F000427B691A600BE07B691B685C
:1019100003F000427B6803F0F8413B680B431A4335
:101920007B691A6000BF1C37BD465DF8047B7047B9
:101930000060025880B485B000AF786039607B6881
:1019400060331A463B689B001344FB60FB681B68CE
:1019500003F0F84318461437BD465DF8047B704722
:1019600080B485B000AFF860B9607A60FB681B692D
:1019700023F4F042BB6803F01F03796801FA03F314
:101980001A43FB681A6100BF1437BD465DF8047B3B
:101990007047000080B487B000AFF860B9607A602B
:1019A000FB680C4A93420ED0FB6860331A46BB6852
:1019B0009B0013447B617B691B6823F000427B68BA
:1019C0001A437B691A6000BF1C37BD465DF8047B73
:1019D000704700BF0060025880B487B000AFF86065
:1019E000B9607A60FB680C4A93420ED1FB686033A1
:1019F0001A46BB689B0013447B617B691B6823F01C
:101A000000727B681A437B691A6000BF1C37BD46B1
:101A10005DF8047B704700BF0060025880B487B057
:101A200000AFF860B9607A60FB680C4A93420ED14F
:101A3000FB6860331A46BB689B0013447B617B697B
:101A40001B6823F080727B681A437B691A6000BFB1
:101A50001C37BD465DF8047B704700BF006002582C
:101A600080B487B000AFF860B9607A60FB6860331B
:101A70001A46BB689B0013447B61FB680C4A934287
:101A800008D17B691B6823F000427B681A437B699D
:101A90001A6007E07B691B6823F000427B681A43E9
:101AA0007B691A6000BF1C37BD465DF8047B704738
:101AB0000060025880B487B000AFF860B9607A6007
:101AC000FB6830331A46BB681B0A9B0003F00C030B
:101AD00013447B617B691A68BB6803F01F031F21F5
:101AE00001FA03F3DB431A407B689B0E03F01F01EE
:101AF000BB6803F01F0301FA03F31A437B691A6002
:101B000000BF1C37BD465DF8047B704780B487B0CA
:101B100000AFF860B9607A60FB6814331A46BB689E
:101B20005B0E9B0003F0040313447B617B691A681E
:101B3000BB681B0D03F01F03072101FA03F3DB430E
:101B40001A40BB681B0D03F01F03796801FA03F309
:101B50001A437B691A6000BF1C37BD465DF8047BE1
:101B60007047000080B485B000AFF860B9607A605B
:101B7000FB681A4A934215D1FB68D3F8B020BB68C2
:101B8000C3F31303DB431A407B6803F018031449C3
:101B9000D940BB680B40C3F313031A43FB68C3F877
:101BA000B02014E0FB68D3F8C020BB68C3F3130374
:101BB000DB431A407B6803F018030949D940BB682E
:101BC0000B40C3F313031A43FB68C3F8C02000BFE4
:101BD0001437BD465DF8047B704700BF00600258B3
:101BE000FFFF0F0080B483B000AF78607B689A6815
:101BF000044B13407A68936000BF0C37BD465DF814
:101C0000047B7047C0FFFF5F80B483B000AF786093
:101C10007B689B6803F00053B3F1005F01D101239F
:101C200000E0002318460C37BD465DF8047B704782
:101C300080B483B000AF78607B689A68054B13402E
:101C400043F080527B689A6000BF0C37BD465DF858
:101C5000047B7047C0FFFF6F80B483B000AF786033
:101C60007B689B6803F08053B3F1805F01D101234F
:101C700000E0002318460C37BD465DF8047B704732
:101C800080B483B000AF78607B689B6803F0010389
:101C9000012B01D1012300E0002318460C37BD467B
:101CA0005DF8047B704780B483B000AF78607B68D8
:101CB0009B6803F00403042B01D1012300E00023FF
:101CC00018460C37BD465DF8047B704780B483B07E
:101CD00000AF78607B689B6803F00803082B01D194
:101CE000012300E0002318460C37BD465DF8047B55
:101CF0007047000090B589B000AF78600023FB7793
:101D00000023BB607B68002B01D10123EEE17B68DF
:101D10001B69002B7B681B6E002B09D17868FEF7CE
:101D20007DFD7B6800225A667B68002283F85C2078
:101D30007B681B681846FFF767FF0346002B04D03B
:101D40007B681B681846FFF74DFF7B681B681846C9
:101D5000FFF782FF0346002B14D17B681B681846EF
:101D6000FFF766FF8E4B1B689B098E4AA2FB03237D
:101D70009B090133BB6002E0BB68013BBB60BB68F1
:101D8000002BF9D17B681B681846FFF765FF0346F7
:101D9000002B0DD17B681B6E43F010027B681A6626
:101DA0007B685B6E43F001027B685A660123FB7718
:101DB0007B681B681846FFF776FF78617B681B6EAF
:101DC00003F01003002B40F088817B69002B40F06A
:101DD00084817B681B6E23F4817343F002027B686D
:101DE0001A667B681B681846FFF74AFF0346002BFC
:101DF00036D17B681B686C4A934204D07B681B68B1
:101E00006A4A93420ED16848FFF73AFF0446674892
:101E1000FFF736FF03462343002B0CBF01230023AB
:101E2000DBB208E06248FFF72BFF0346002B0CBF34
:101E300001230023DBB2002B12D07B681B685A4AB7
:101E4000934204D07B681B68584A934201D1594A97
:101E500000E0594A7B685B6819461046FFF7CAFCE8
:101E60007B681B68524A934229D17B685B7E5A0388
:101E70007B68DB6B1A437B68DB681A437B689B6873
:101E8000082B13D07B689B680C2B0DD07B689B685C
:101E90001C2B07D07B689B68182B01D1182306E008
:101EA000002304E0102302E0082300E000231A438B
:101EB0007B6893F820301B041343BB610EE07B6802
:101EC0005B7E5A037B68DB6B1A437B689B681A4313
:101ED0007B6893F820301B041343BB617B6893F845
:101EE0002030012B06D17B685B6A013B5B04BA6939
:101EF0001343BB617B689B6A002B09D07B689B6A9C
:101F000003F478727B68DB6A1343BA691343BB61DD
:101F10007B681B68264A934215D17B681B68DA6888
:101F2000264B13407A681268B9690B43D3607B680B
:101F30001B681B6923F040617B685A6B7B681B68D8
:101F40000A431A6109E07B681B68DA681C4B13407E
:101F50007A681268B9690B43D3607B681B681846BE
:101F6000FFF7A1FE38617B681B681846FFF7AEFEDD
:101F7000F8603B69002B40F08E80FB68002B40F03E
:101F80008A807B681B680A4A93421BD17B681B7E50
:101F90009A037B6893F838305B001343BB6118E009
:101FA00004000024632D3E05002002400021024071
:101FB0000060025800230240006302580740F0FF0F
:101FC00003C0F0FF7B681B7E9A037B681B6B134387
:101FD000BB617B681B68DA68464B13407A681268FD
:101FE000B9690B43D3607B6893F84430012B37D138
:101FF0007B689B6A002B7B681B683F4A934216D123
:102000007B681B681A693D4B13407A68916C7A684B
:10201000D26C11437A68126D11437A68526D0A438B
:102020001A437B681B6842F001021A6120E07B685A
:102030001B681A69324B13407A68926C013A11049A
:102040007A68D26C11437A68126D11437A68526DC6
:102050000A431A437B681B6842F001021A6107E0D9
:102060007B681B681A697B681B6822F001021A6191
:102070007B681B681B6923F070417B681A6C7B6866
:102080001B680A431A617B681B681B4A934202D093
:10209000786800F00BFD7B681B69012B0CD17B6815
:1020A0001B681B6B23F00F017B68DB695A1E7B6882
:1020B0001B680A431A6307E07B681B681A6B7B681E
:1020C0001B6822F00F021A637B681B6E23F0030368
:1020D00043F001027B681A6607E07B681B6E43F0E1
:1020E00010027B681A660123FB77FB7F18462437B2
:1020F000BD4690BDFCBFFFFF006002581FF800FC0A
:102100001EF800FC90B5A5B000AF786039600023E0
:1021100087F88F300023FB607B6893F84430012BF5
:102120003B68DB68A44A93427B6893F85C30012BE0
:1021300002D1022300F0A2BC7B68012283F85C205C
:102140007B681B681846FFF7AEFD0346002B40F086
:1021500086843B681B68002B31DB7B681B68974AD1
:1021600093422CD03B681B68C3F31303002B08D1A8
:102170003B681B689B0E03F01F03012202FA03F366
:1021800016E03B681B687B677B6F93FAA3F33B67A2
:102190003B6FBB67BB6F002B01D1202303E0BB6FFC
:1021A000B3FA83F3DBB203F01F03012202FA03F355
:1021B0007A681268D1697A6812680B43D3617B68C8
:1021C00018683B6859683B681B681A46FFF772FC41
:1021D0007B681B681846FFF766FDC7F884007B68BC
:1021E0001B681846FFF772FDC7F88000D7F88430E7
:1021F000002B40F04A82D7F88030002B40F0458217
:102200007B6818683B6819683B689B681A46FFF74B
:102210007DFC7B681B68694A93420DD13B685A6913
:102220007B681B68DB68DB0803F003035B0002FAD2
:1022300003F3C7F8883032E0614B1B6803F070434A
:10224000B3F1805F0BD13B685A697B681B68DB6820
:102250009B0803F007035B0002FA03F31DE07B68B1
:102260001B68DB6803F01003002B0BD13B685A6935
:102270007B681B68DB689B0803F007035B0002FABE
:1022800003F30AE03B685A697B681B68DB689B08BC
:1022900003F004035B0002FA03F3C7F888303B68DD
:1022A0001B69042B48D07B6818683B6819693B6838
:1022B0001A68D7F88830FFF70BFB7B681B683F4A2A
:1022C000934219D17B6818683B6819693B68DB69E0
:1022D0001A46FFF7A3FB7B6818683B6819693B68DF
:1022E00093F82030012B02D14FF0007300E000235F
:1022F0001A46FFF771FBC8E17B6818683B681969EB
:102300003B6893F82130012B02D14FF0004300E0ED
:1023100000231A46FFF73EFB7B6818683B68196983
:102320003B681B7E012B02D14FF4006300E00023C9
:102330001A46FFF715FBA8E17B681B681F4A93420A
:1023400040F05B817B681B6800211846FFF7F2FABA
:102350000346C3F31303002B0AD17B681B680021DB
:102360001846FFF7E7FA03469B0E03F01F0217E03B
:102370007B681B6800211846FFF7DCFA0346BB6642
:10238000BB6E93FAA3F37B667B6EFB66FB6E002B42
:1023900001D1202303E0FB6EB3FA83F3DBB21A46CC
:1023A0003B681B68C3F31303002B0BD13B681B680E
:1023B0009B0E03F01F0317E00000FF470060025868
:1023C0000010005C3B681B68FB65FB6D93FAA3F390
:1023D000BB65BB6D3B663B6E002B01D1202303E048
:1023E0003B6EB3FA83F3DBB29A4206D17B681B687B
:1023F000002200211846FFF733FB7B681B68012190
:102400001846FFF797FA0346C3F31303002B0AD1CC
:102410007B681B6801211846FFF78CFA03469B0E68
:1024200003F01F0217E07B681B6801211846FFF7C5
:1024300081FA03463B653B6D93FAA3F3FB64FB6CA7
:102440007B657B6D002B01D1202303E07B6DB3FA0C
:1024500083F3DBB21A463B681B68C3F31303002BFC
:1024600005D13B681B689B0E03F01F0311E03B681E
:102470001B687B647B6C93FAA3F33B643B6CBB648B
:10248000BB6C002B01D1202303E0BB6CB3FA83F3B8
:10249000DBB29A4206D17B681B68002201211846F4
:1024A000FFF7DEFA7B681B6802211846FFF742FA45
:1024B0000346C3F31303002B0AD17B681B68022178
:1024C0001846FFF737FA03469B0E03F01F0217E08A
:1024D0007B681B6802211846FFF72CFA0346BB6392
:1024E000BB6B93FAA3F37B637B6BFB63FB6B002BF0
:1024F00001D1202303E0FB6BB3FA83F3DBB21A466E
:102500003B681B68C3F31303002B05D13B681B68B2
:102510009B0E03F01F0311E03B681B68FB62FB6A24
:1025200093FAA3F3BB62BB6A3B633B6B002B01D105
:10253000202303E03B6BB3FA83F3DBB29A4206D16C
:102540007B681B68002202211846FFF789FA7B6826
:102550001B6803211846FFF7EDF90346C3F3130385
:10256000002B0AD17B681B6803211846FFF7E2F9AC
:1025700003469B0E03F01F0217E07B681B680321D4
:102580001846FFF7D7F903463B623B6A93FAA3F379
:10259000FB61FB697B627B6A002B01D1202303E096
:1025A0007B6AB3FA83F3DBB21A463B681B68C3F35A
:1025B0001303002B05D13B681B689B0E03F01F0320
:1025C00011E03B681B687B617B6993FAA3F33B6175
:1025D0003B69BB61BB69002B01D1202303E0BB69D0
:1025E000B3FA83F3DBB29A424FD17B681B680022B7
:1025F00003211846FFF734FA47E07B681B681B6E1F
:1026000003F0F8423B681B689B069A4207D17B683F
:102610001B681A6E7B681B6822F000421A667B6892
:102620001B685B6E03F0F8423B681B689B069A428E
:1026300007D17B681B685A6E7B681B6822F00042DA
:102640005A667B681B689B6E03F0F8423B681B6808
:102650009B069A4207D17B681B689A6E7B681B6851
:1026600022F000429A667B681B68DB6E03F0F8423A
:102670003B681B689B069A4207D17B681B68DA6E31
:102680007B681B6822F00042DA667B681B6818468C
:10269000FFF7F6FA0346002B40F0EA817B681868E2
:1026A0003B6819683B68DB681A46FFF75BFA3B68D2
:1026B000DB687A4A934240F0E0807B681A687B6866
:1026C0001B6877498B4247D13B681B6875498B4231
:1026D00040D03B681B6874498B4239D03B681B680B
:1026E00072498B4232D03B681B6871498B422BD0B8
:1026F0003B681B686F498B4224D03B681B686E495E
:102700008B421DD03B681B686C498B4216D03B68DE
:102710001B686B498B420FD03B681B6869498B4231
:1027200008D03B681B6868498B4201D1674BA0E029
:1027300000239EE0664B9CE0664B9AE0604B98E07D
:102740005E4B96E0644B94E0644B92E0644B90E007
:10275000644B8EE001238CE07B681B6862498B42EE
:1027600040D13B681B684F498B4239D03B681B689E
:102770004D498B4232D03B681B684C498B422BD071
:102780003B681B684A498B4224D03B681B68494917
:102790008B421DD03B681B6847498B4216D03B6873
:1027A0001B6846498B420FD03B681B6844498B42EB
:1027B00008D03B681B6844498B4201D1434B58E029
:1027C000002356E0434B54E03D4B52E03B4B50E07E
:1027D000414B4EE0414B4CE0414B4AE0414B48E01D
:1027E000012346E07B681B6840498B4240D13B682F
:1027F0001B682C498B4239D03B681B682A498B42A5
:1028000032D03B681B6829498B422BD03B681B6840
:1028100027498B4224D03B681B6826498B421DD038
:102820003B681B6824498B4216D03B681B682349D0
:102830008B420FD03B681B6826498B4208D03B680F
:102840001B682B498B4201D12A4B12E0002310E078
:10285000274B0EE01A4B0CE0184B0AE01E4B08E029
:102860001E4B06E01E4B04E01E4B02E0012300E07D
:10287000002319461046FEF7F1FF3B681B68002B4A
:1028800080F2F6807B681B68054A934204D07B681F
:102890001B68154A934231D1174B30E00000FF47C7
:1028A0000020024002003004040060080800900C80
:1028B0001000C0102000F0140004002A0008302E80
:1028C00000106032000021430000844B0000B84F2C
:1028D00000005247002090360002B0250001802100
:1028E0008000501D40002019002102400060025865
:1028F0000040C03A0080F03E00230240614B184681
:10290000FEF79EFFF8677B681B685F4A934204D01E
:102910007B681B685D4A93420ED15B48FFF7B0F9B4
:1029200004465A48FFF7ACF903462343002B0CBF7B
:1029300001230023DBB208E05548FFF7A1F9034665
:10294000002B0CBF01230023DBB2002B7DD03B68A2
:102950001B68504A934230D1FB6F03F40003002BF5
:102960002BD17B681B684A4A934240F081807B6888
:102970001B68454A934204D07B681B68434A9342D4
:1029800001D1454A00E03F4AFB6F43F4000319467A
:102990001046FEF742FF414B1B689B09404AA2FBD1
:1029A00003239B0901335B00FB6002E0FB68013BF2
:1029B000FB60FB68002BF9D15AE03B681B68394A81
:1029C00093421ED1FB6F03F08073002B19D17B68FB
:1029D0001B682F4A93424BD17B681B682A4A93425B
:1029E00004D07B681B68294A934201D12A4A00E03F
:1029F000244AFB6F43F0807319461046FEF70DFF23
:102A000036E03B681B68284A934231D1FB6F03F4E0
:102A10008003002B2CD17B681B681D4A934227D171
:102A20007B681B68184A934204D07B681B68174A6E
:102A3000934201D1184A00E0124AFB6F43F480032D
:102A400019461046FEF7E9FE12E07B681B6E43F064
:102A500020027B681A66012387F88F3008E07B68C4
:102A60001B6E43F020027B681A66012387F88F30C3
:102A70007B68002283F85C2097F88F3018469437E3
:102A8000BD4690BD00630258002002400021024074
:102A900000600258000052C70023024004000024D6
:102AA000632D3E05000021C3000084CB80B584B0B7
:102AB00000AF78607B681B686C4A934204D07B68E7
:102AC0001B686B4A934209D16A4B9B6803F44033FD
:102AD000002B14BF01230023DBB208E0664B9B6888
:102AE00003F44033002B14BF01230023DBB2002B7F
:102AF0001CD003F055FCF8607B685B68B3F5403F81
:102B000010D0B3F5403F73D8B3F5803F02D0B3F592
:102B1000003F6DD17B685B681B0CFA68B2FBF3F376
:102B2000FB6068E0FB689B08FB6064E04FF40020FA
:102B30004FF0000104F01AFEF8607B685B68B3F5A3
:102B4000301F51D0B3F5301F54D8B3F5201F47D0F4
:102B5000B3F5201F4ED8B3F5101F3DD0B3F5101FAD
:102B600048D8B3F5001F33D0B3F5001F42D8B3F5F2
:102B7000E01F29D0B3F5E01F3CD8B3F5C01F1AD031
:102B8000B3F5C01F36D8B3F5A01F14D0B3F5A01FFE
:102B900030D8B3F5801F0ED0B3F5801F2AD8B3F517
:102BA000402F08D0B3F5402F24D8B3F5802F02D0A2
:102BB000B3F5002F1ED17B685B689B0C5B00FA6845
:102BC000B2FBF3F3FB6016E0FB681B09FB6012E04D
:102BD000FB685B09FB600EE0FB689B09FB600AE099
:102BE000FB68DB09FB6006E0FB681B0AFB6002E098
:102BF00000BF00E000BFFB685B08FB60FB681F4A8A
:102C0000934208D87B681B689A687B681B6822F42B
:102C100040729A6025E0FB68194A93420AD87B68A3
:102C20001B689B6823F440727B681B6842F48072C7
:102C30009A6016E0FB68134A93420AD87B681B68C7
:102C40009B6823F440727B681B6842F400729A60B0
:102C500007E07B681B689A687B681B6842F44072D7
:102C60009A6000BF1037BD4680BD00BF0020024003
:102C7000002102400023024000630258105E5F0002
:102C800020BCBE0040787D0180B483B000AF786086
:102C90007B689B6803F00103012B01D1012300E055
:102CA000002318460C37BD465DF8047B704780B49E
:102CB00083B000AF78607B689B6803F00403042B4B
:102CC00001D1012300E0002318460C37BD465DF812
:102CD000047B704790B5A3B000AF786039600023E3
:102CE00087F887307B6893F85C30012B01D1022391
:102CF000C1E07B68012283F85C200023FB6600238F
:102D00003B677B681B685E4A934202D15D4BFB6068
:102D100001E00023FB60FB68002B0BD17B681B6E7E
:102D200043F020027B681A667B68002283F85C20EF
:102D30000123A0E0FB681846FFF7B9FFC7F8800041
:102D40007B681B681846FFF7B2FF0346002B40F074
:102D50008180D7F88030002B7CD17B681B68484A83
:102D6000934204D07B681B68464A934201D1464B8C
:102D700000E0464BFB673B681B68002B39D0FB6FBC
:102D80009B6823F440423B685B681A43FB6F9A6080
:102D90007B681B683A4A934204D07B681B68394AB7
:102DA00093420ED13648FFF76FFF04463548FFF7D0
:102DB0006BFF03462343002B0CBF01230023DBB230
:102DC00008E03348FFF760FF0346002B0CBF0123E8
:102DD0000023DBB2002B47D0FB6F9A682D4B1340CA
:102DE0003A6811683A6892680A431A43FB6F9A601E
:102DF0003AE0FB6F9B6823F44042FB6F9A607B686C
:102E00001B681F4A934204D07B681B681D4A93428B
:102E10000ED11B48FFF738FF04461A48FFF734FF6E
:102E200003462343002B0CBF01230023DBB208E041
:102E30001748FFF729FF0346002B0CBF012300238F
:102E4000DBB2002B10D0FB6F9A68124B1340FA6F65
:102E5000936009E07B681B6E43F020027B681A6672
:102E6000012387F8873000E000BF7B68002283F8E9
:102E70005C2097F8873018468C37BD4690BD00BF60
:102E8000002002400021024000230240006302585B
:102E900000600258E0F0FFFF80B485B000AF7860BA
:102EA0007B6803F00703FB600B4BDB68BB60BA6811
:102EB0004FF6FF031340BB60FB681A02BB681A435E
:102EC000064B1343BB60044ABB68D36000BF143792
:102ED000BD465DF8047B704700ED00E00000FA0598
:102EE00080B400AF044BDB681B0A03F007031846ED
:102EF000BD465DF8047B704700ED00E080B483B010
:102F000000AF0346FB80B7F90630002B0BDBFB88D4
:102F100003F01F020749B7F906305B09012000FAE8
:102F200002F241F8232000BF0C37BD465DF8047B58
:102F3000704700BF00E100E080B483B000AF0346FB
:102F40003960FB80B7F90630002B0ADB3B68DAB248
:102F50000C49B7F906301201D2B20B4483F80023B2
:102F60000AE03B68DAB20849FB8803F00F03043B30
:102F70001201D2B20B441A7600BF0C37BD465DF881
:102F8000047B704700E100E000ED00E080B489B010
:102F900000AFF860B9607A60FB6803F00703FB617B
:102FA000FB69C3F10703042B28BF0423BB61FB6942
:102FB0000433062B02D9FB69033B00E000237B614D
:102FC0004FF0FF32BB6902FA03F3DA43BB681A40E1
:102FD0007B699A404FF0FF317B6901FA03F3D943D3
:102FE0007B680B40134318462437BD465DF8047BCD
:102FF0007047000080B582B000AF78607B68013B0D
:10300000B3F1807F01D301230FE00A4A7B68013BC3
:1030100053600F214FF0FF30FFF78EFF054B00226A
:103020009A60044B07221A60002318460837BD46F1
:1030300080BD00BF10E000E080B582B000AF7860D6
:103040007868FFF729FF00BF0837BD4680BD80B50F
:1030500086B000AF0346B9607A60FB81FFF740FF9E
:1030600078617A68B9687869FFF790FF0246B7F926
:103070000E3011461846FFF75FFF00BF1837BD46F8
:1030800080BD80B582B000AF0346FB80B7F9063043
:103090001846FFF733FF00BF0837BD4680BD80B537
:1030A00082B000AF78607868FFF7A4FF0346184647
:1030B0000837BD4680BD000080B400AFBFF35F8F0E
:1030C00000BF074B5B6A064A23F480335362054B0B
:1030D00000225A6000BFBD465DF8047B704700BF08
:1030E00000ED00E090ED00E080B483B000AF7860C8
:1030F0000B4A7B6843F0010353600A4B5B6A094A41
:1031000043F480335362BFF34F8F00BFBFF36F8F21
:1031100000BF00BF0C37BD465DF8047B704700BFA1
:1031200090ED00E000ED00E080B483B000AF786087
:103130007B685A781B4B9A601A4B1B69194A23F01B
:1031400001031361174A7B685B68D3607B681B7B54
:103150001A077B68DB7A1B061A437B689B7ADB04C1
:103160001A437B685B7B9B041A437B689B7B5B04F5
:103170001A437B68DB7B1B041A437B685B7A1B0268
:103180001A437B681B7A5B0013437A6812781146F6
:10319000044A0B43136100BF0C37BD465DF8047B46
:1031A000704700BF90ED00E080B582B000AF78605E
:1031B0007B68002B01D1012354E07B685B7FDBB28D
:1031C000002B05D17B6800221A777868FDF7BAFBDF
:1031D0007B6802225A777B681B79002B0CD17B68B5
:1031E0001B68224A5A617B681B689A687B681B6867
:1031F00022F018029A600CE07B6899687B68DB68B3
:103200001A46786800F034F80346002B01D00123F9
:1032100028E07B685B79002B05D17B681B684FF049
:10322000FF321A6104E07B681B687A6812691A61D0
:103230007B681B689B6823F060017B685A697B6828
:103240001B680A439A607B681B689B6823F08001B7
:103250007B689A697B681B680A439A607B680122D5
:103260005A77002318460837BD4680BDB71DC104F4
:1032700080B487B000AFF860B9607A600023FB7556
:103280001F233B61BB6803F00103002B02D1012324
:10329000FB7563E000BF3B695A1E3A61002B09D001
:1032A0003B6903F01F03BA6822FA03F303F001033A
:1032B000002BF0D07B68182B46D801A252F823F0DF
:1032C0004F330008493300084933000849330008E8
:1032D00049330008493300084933000849330008DE
:1032E0003D330008493300084933000849330008DA
:1032F00049330008493300084933000849330008BE
:1033000031330008493300084933000849330008C5
:10331000493300084933000849330008493300089D
:10332000253300083B69062B13D90123FB7510E0F8
:103330003B69072B0FD90123FB750CE03B690F2B71
:103340000BD90123FB7508E00123FB7506E000BFE4
:1033500004E000BF02E000BF00E000BFFB7D002BE7
:103360000DD1FB681B68BA685A61FB681B689B68D3
:1033700023F01801FB681B687A680A439A60FB7D9A
:1033800018461C37BD465DF8047B704780B586B093
:1033900000AF7860FEF722FA38617B68002B01D11C
:1033A000012312E37B681B68664A93424AD07B681C
:1033B0001B68654A934245D07B681B68634A934209
:1033C00040D07B681B68624A93423BD07B681B6895
:1033D000604A934236D07B681B685F4A934231D083
:1033E0007B681B685D4A93422CD07B681B685C4AF3
:1033F000934227D07B681B685A4A934222D07B684D
:103400001B68594A93421DD07B681B68574A9342F8
:1034100018D07B681B68564A934213D07B681B68A0
:10342000544A93420ED07B681B68534A934209D09A
:103430007B681B68514A934204D07B681B68504AE2
:10344000934201D1012300E00023002B00F03C81D6
:103450007B68022283F835207B68002283F83420C1
:103460007B681B68374A93424AD07B681B68364AA0
:10347000934245D07B681B68344A934240D07B68B6
:103480001B68334A93423BD07B681B68314A9342A6
:1034900036D07B681B68304A934231D07B681B680A
:1034A0002E4A93422CD07B681B682D4A934227D02A
:1034B0007B681B682B4A934222D07B681B682A4A90
:1034C00093421DD07B681B68284A934218D07B68C2
:1034D0001B68274A934213D07B681B68254A934296
:1034E0000ED07B681B68244A934209D07B681B6816
:1034F000224A934204D07B681B68214A934208D138
:103500007B681B681A687B681B6822F001021A60DE
:1035100007E07B681B681A687B681B6822F0010261
:103520001A602FE0FEF75AF902463B69D31A052BC1
:1035300028D97B6820225A657B68032283F83520CE
:10354000012342E2100002402800024040000240F5
:10355000580002407000024088000240A000024073
:10356000B800024010040240280402404004024017
:10357000580402407004024088040240A004024043
:10358000B80402407B681B681B6803F00103002B32
:10359000C8D17B681B681B687B617A69834B1340C9
:1035A0007B617B689A687B68DB681A437B681B6970
:1035B0001A437B685B691A437B689B691A437B6883
:1035C000DB691A437B681B6A13437A6913437B6187
:1035D0007B685B6A042B07D17B68DA6A7B681B6BAC
:1035E00013437A6913437B617B685B68282B03D99B
:1035F0007B685B682E2B1FD97B685B683E2B03D9E9
:103600007B685B68422B17D97B685B68462B03D9C4
:103610007B685B68482B0FD97B685B684E2B03D9AE
:103620007B685B68522B07D97B685B68732B05D975
:103630007B685B68772B01D8012300E00023002B17
:1036400003D07B6943F480137B617B681B687A69D4
:103650001A607B681B685B697B617B6923F00703E9
:103660007B617B685B6A7A6913437B617B685B6A19
:10367000042B17D17B689B6A7A6913437B617B6853
:10368000DB6A002B0ED0786801F0FAFB0346002BB2
:1036900008D07B6840225A657B68012283F8352078
:1036A000012392E17B681B687A695A61786801F0AE
:1036B00035FB0346BB607B68DB6D03F01F033F22D5
:1036C0009A40BB689A60C8E07B681B68384A93429E
:1036D00022D07B681B68374A93421DD07B681B68E9
:1036E000354A934218D07B681B68344A934213D002
:1036F0007B681B68324A93420ED07B681B68314A54
:10370000934209D07B681B682F4A934204D07B68A0
:103710001B682E4A934201D1012300E00023002BB5
:1037200000F092807B681B68214A934221D07B681D
:103730001B68204A93421CD07B681B681E4A934238
:1037400017D07B681B681D4A934212D07B681B68A8
:103750001B4A93420DD07B681B681A4A934208D0DB
:103760007B681B68184A934203D07B681B68174A22
:1037700093427B68022283F835207B68002283F81D
:1037800034207B681B681B687B617A69104B13408F
:103790007B617B689B68402B1CD07B689B68802B7F
:1037A00002D14FF4804316E0002314E03F8010FE66
:1037B000085402581C5402583054025844540258B9
:1037C000585402586C540258805402589454025869
:1037D0000F00FEFF10237A68D268D2081A437B6874
:1037E0001B69DB081A437B685B69DB081A437B684B
:1037F0009B69DB081A437B68DB69DB081A437B683B
:103800001B6A1B0913437A6913437B617B681B683E
:103810007A691A607B681B681A466E4B13446E4ABD
:10382000A2FB03231B099A007B68DA65786801F024
:1038300075FA0346FB607B68DB6D03F01F03012212
:103840009A40FB685A6008E07B6840225A657B68B2
:10385000032283F835200123B7E07B681B685F4AA9
:10386000934272D07B681B685D4A93426DD07B683F
:103870001B685C4A934268D07B681B685A4A934233
:1038800063D07B681B68594A93425ED07B681B6893
:10389000574A934259D07B681B68564A934254D08A
:1038A0007B681B68544A93424FD07B681B68534A1D
:1038B00093424AD07B681B68514A934245D07B684B
:1038C0001B68504A934240D07B681B684E4A934223
:1038D0003BD07B681B684D4A934236D07B681B689F
:1038E0004B4A934231D07B681B684A4A93422CD0A2
:1038F0007B681B68484A934227D07B681B68474A0D
:10390000934222D07B681B68454A93421DD07B6856
:103910001B68444A934218D07B681B68424A934212
:1039200013D07B681B68414A93420ED07B681B68AA
:103930003F4A934209D07B681B683E4A934204D0B9
:103940007B681B683C4A934201D1012300E00023BD
:10395000002B32D0786801F00FFB7B689B68802BCE
:1039600002D17B6800225A607B685A687B681B6EB4
:10397000D2B21A607B685B6E7A68926E5A607B681E
:103980005B68002B10D07B685B68082B0CD87868CC
:1039900001F08CFB7B68DB6E00221A607B681B6F7A
:1039A0007A68526F5A6008E07B680022DA667B68AA
:1039B00000221A677B6800225A677B6800225A65DA
:1039C0007B68012283F83520002318461837BD464E
:1039D00080BD00BFF8ABFDA7CDCCCCCC1000024021
:1039E000280002404000024058000240700002409F
:1039F00088000240A0000240B800024010040240CB
:103A0000280402404004024058040240700402406E
:103A100088040240A0040240B8040240085402583E
:103A20001C540258305402584454025858540258F6
:103A30006C540258805402589454025880B584B093
:103A400000AF78607B68002B01D1012337E27B68EF
:103A500093F83530DBB2022B04D07B6880225A65A4
:103A600001232CE27B681B685C4A93424AD07B6846
:103A70001B685B4A934245D07B681B68594A934256
:103A800040D07B681B68584A93423BD07B681B68D8
:103A9000564A934236D07B681B68554A934231D0D0
:103AA0007B681B68534A93422CD07B681B68524A40
:103AB000934227D07B681B68504A934222D07B6890
:103AC0001B684F4A93421DD07B681B684D4A934246
:103AD00018D07B681B684C4A934213D07B681B68E4
:103AE0004A4A93420ED07B681B68494A934209D0E8
:103AF0007B681B68474A934204D07B681B68464A30
:103B0000934201D1012300E00023002B00F08680C6
:103B10007B68042283F835207B681B682F4A934218
:103B20004AD07B681B682E4A934245D07B681B684D
:103B30002C4A934240D07B681B682B4A93423BD06F
:103B40007B681B68294A934236D07B681B68284AE9
:103B5000934231D07B681B68264A93422CD07B6805
:103B60001B68254A934227D07B681B68234A9342EF
:103B700022D07B681B68224A93421DD07B681B6859
:103B8000204A934218D07B681B681F4A934213D087
:103B90007B681B681D4A93420ED07B681B681C4AD9
:103BA000934209D07B681B681A4A934204D07B6811
:103BB0001B68194A934208D17B681B681A687B68A6
:103BC0001B6822F001021A6078E17B681B681A68A2
:103BD0007B681B6822F001021A606FE1100002404E
:103BE000280002404000024058000240700002409D
:103BF00088000240A0000240B800024010040240C9
:103C0000280402404004024058040240700402406C
:103C100088040240A0040240B80402407B681B688C
:103C20001A687B681B6822F00E021A607B681B68AA
:103C30006C4A93424AD07B681B686B4A934245D0DA
:103C40007B681B68694A934240D07B681B68684A5E
:103C500093423BD07B681B68664A934236D07B68B0
:103C60001B68654A934231D07B681B68634A934264
:103C70002CD07B681B68624A934227D07B681B6804
:103C8000604A934222D07B681B685F4A93421DD0F2
:103C90007B681B685D4A934218D07B681B685C4A4E
:103CA000934213D07B681B685A4A93420ED07B68BC
:103CB0001B68594A934209D07B681B68574A934254
:103CC00004D07B681B68564A934208D17B681B6806
:103CD0001A687B681B6822F001021A6007E07B68A3
:103CE0001B681A687B681B6822F001021A607B68F7
:103CF0001B683C4A934272D07B681B683A4A9342E5
:103D00006DD07B681B68394A934268D07B681B681A
:103D1000374A934263D07B681B68364A93425ED031
:103D20007B681B68344A934259D07B681B68334ACE
:103D3000934254D07B681B68314A93424FD07B68D2
:103D40001B68304A93424AD07B681B682E4A9342D4
:103D500045D07B681B682D4A934240D07B681B6826
:103D60002B4A93423BD07B681B682A4A934236D049
:103D70007B681B68284A934231D07B681B68274ABE
:103D800093422CD07B681B68254A934227D07B68DE
:103D90001B68244A934222D07B681B68224A9342C4
:103DA0001DD07B681B68214A934218D07B681B6832
:103DB0001F4A934213D07B681B681E4A93420ED061
:103DC0007B681B681C4A934209D07B681B681B4AAE
:103DD000934204D07B681B68194A934232D1012375
:103DE00031E000BF100002402800024040000240C5
:103DF000580002407000024088000240A0000240CB
:103E0000B80002401004024028040240400402406E
:103E1000580402407004024088040240A00402409A
:103E2000B8040240085402581C5402583054025836
:103E300044540258585402586C5402588054025842
:103E4000945402580023002B28D07B681B6E1A68FC
:103E50007B681B6E22F480721A607B689B6DFB602E
:103E60007B68DB6D03F01F0301229A40FB685A60F8
:103E70007B685B6E7A68926E5A607B68DB6E002BA3
:103E80000CD07B68DB6E1A687B68DB6E22F4807274
:103E90001A607B681B6F7A68526F5A607B680122D8
:103EA00083F835207B68002283F834207B681B6D03
:103EB000002B03D07B681B6D786898470023184659
:103EC0001037BD4680BD00BF80B58AB000AF7860B6
:103ED0000023FB60674B1B68674AA2FB03239B0A16
:103EE0007B627B689B6D3B627B689B6DFB613B6A81
:103EF0001B68BB61FB691B687B617B681B685F4A51
:103F000093424AD07B681B685D4A934245D07B68E8
:103F10001B685C4A934240D07B681B685A4A9342B4
:103F20003BD07B681B68594A934236D07B681B683C
:103F3000574A934231D07B681B68564A93422CD033
:103F40007B681B68544A934227D07B681B68534A9E
:103F5000934222D07B681B68514A93421DD07B68F4
:103F60001B68504A934218D07B681B684E4A9342A4
:103F700013D07B681B684D4A93420ED07B681B6848
:103F80004B4A934209D07B681B684A4A934204D04B
:103F90007B681B68484A934201D1012300E000235B
:103FA000002B00F02B847B68DB6D03F01F030822DD
:103FB0009A40BB691340002B00F0A2807B681B680D
:103FC0002E4A93424AD07B681B682D4A934245D0C3
:103FD0007B681B682B4A934240D07B681B682A4A47
:103FE00093423BD07B681B68284A934236D07B685B
:103FF0001B68274A934231D07B681B68254A93424D
:104000002CD07B681B68244A934227D07B681B68AE
:10401000224A934222D07B681B68214A93421DD0DA
:104020007B681B681F4A934218D07B681B681E4A36
:10403000934213D07B681B681C4A93420ED07B6866
:104040001B681B4A934209D07B681B68194A93423C
:1040500004D07B681B68184A93422FD17B681B6889
:104060001B6803F00403002B14BF01230023DBB201
:104070002EE000BF04000024B5814E1B100002405A
:1040800028000240400002405800024070000240F8
:1040900088000240A0000240B80002401004024024
:1040A00028040240400402405804024070040240C8
:1040B00088040240A0040240B80402407B681B68E8
:1040C0001B6803F00803002B14BF01230023DBB29D
:1040D000002B15D07B681B681A687B681B6822F070
:1040E00004021A607B68DB6D03F01F0308229A400C
:1040F0003B6A9A607B685B6D43F001027B685A659E
:104100007B68DB6D03F01F03BA6922FA03F303F047
:104110000103002B6ED07B681B68694A93424AD02A
:104120007B681B68674A934245D07B681B68664A78
:10413000934240D07B681B68644A93423BD07B68C3
:104140001B68634A934236D07B681B68614A93427E
:1041500031D07B681B68604A93422CD07B681B6817
:104160005E4A934227D07B681B685D4A934222D007
:104170007B681B685B4A93421DD07B681B685A4A68
:10418000934218D07B681B68584A934213D07B68CF
:104190001B68574A93420ED07B681B68554A93426E
:1041A00009D07B681B68544A934204D07B681B6823
:1041B000524A93420AD17B681B685B6903F0800313
:1041C000002B14BF01230023DBB203E07B681B68D4
:1041D0001B680023002B0DD07B68DB6D03F01F03F1
:1041E00001229A403B6A9A607B685B6D43F0020251
:1041F0007B685A657B68DB6D03F01F0304229A40DD
:10420000BB691340002B00F08F807B681B682C4A31
:1042100093424AD07B681B682A4A934245D07B6808
:104220001B68294A934240D07B681B68274A934207
:104230003BD07B681B68264A934236D07B681B685C
:10424000244A934231D07B681B68234A93422CD086
:104250007B681B68214A934227D07B681B68204AF1
:10426000934222D07B681B681E4A93421DD07B6814
:104270001B681D4A934218D07B681B681B4A9342F7
:1042800013D07B681B681A4A93420ED07B681B6868
:10429000184A934209D07B681B68174A934204D09E
:1042A0007B681B68154A93422AD17B681B681B6890
:1042B00003F00203002B14BF01230023DBB223E031
:1042C0001000024028000240400002405800024016
:1042D0007000024088000240A0000240B800024086
:1042E00010040240280402404004024058040240E6
:1042F0007004024088040240A0040240B804024056
:104300007B681B681B680023002B0DD07B68DB6D6E
:1043100003F01F0304229A403B6A9A607B685B6D3E
:1043200043F004027B685A657B68DB6D03F01F0372
:1043300010229A40BB691340002B00F0A6807B68D6
:104340001B68854A93424AD07B681B68834A934224
:1043500045D07B681B68824A934240D07B681B68CB
:10436000804A93423BD07B681B687F4A934236D099
:104370007B681B687D4A934231D07B681B687C4A0E
:1043800093422CD07B681B687A4A934227D07B6883
:104390001B68794A934222D07B681B68774A934214
:1043A0001DD07B681B68764A934218D07B681B68D7
:1043B000744A934213D07B681B68734A93420ED0B1
:1043C0007B681B68714A934209D07B681B68704AFE
:1043D000934204D07B681B686E4A93420AD17B6883
:1043E0001B681B6803F00803002B14BF0123002384
:1043F000DBB209E07B681B681B6803F00403002B39
:1044000014BF01230023DBB2002B3ED07B68DB6DA1
:1044100003F01F0310229A403B6A9A607B681B6876
:104420001B6803F48023002B18D07B681B681B6873
:1044300003F40023002B08D17B681B6C002B24D0D5
:104440007B681B6C786898471FE07B689B6C002B2F
:104450001BD07B689B6C7868984716E07B681B686C
:104460001B6803F48073002B07D17B681B681A68F4
:104470007B681B6822F008021A607B681B6C002BAB
:1044800003D07B681B6C786898477B68DB6D03F012
:104490001F0320229A40BB691340002B00F01081BB
:1044A0007B681B682C4A93424AD07B681B682B4A66
:1044B000934245D07B681B68294A934240D07B6871
:1044C0001B68284A93423BD07B681B68264A93426C
:1044D00036D07B681B68254A934231D07B681B68C5
:1044E000234A93422CD07B681B68224A934227D0F0
:1044F0007B681B68204A934222D07B681B681F4A56
:1045000093421DD07B681B681D4A934218D07B687C
:104510001B681C4A934213D07B681B681A4A93425B
:104520000ED07B681B68194A934209D07B681B68D0
:10453000174A934204D07B681B68164A93422BD1DA
:104540007B681B681B6803F01003002B14BF01235A
:104550000023DBB22AE000BF100002402800024026
:1045600040000240580002407000024088000240B3
:10457000A0000240B800024010040240280402409B
:104580004004024058040240700402408804024083
:10459000A0040240B80402407B681B681B6803F05B
:1045A0000203002B14BF01230023DBB2002B00F019
:1045B00087807B68DB6D03F01F0320229A403B6AF3
:1045C0009A607B6893F83530DBB2042B39D17B6875
:1045D0001B681A687B681B6822F016021A607B68E9
:1045E0001B685A697B681B6822F080025A617B68ED
:1045F0001B6C002B03D17B689B6C002B07D07B6866
:104600001B681A687B681B6822F008021A607B68C6
:10461000DB6D03F01F033F229A403B6A9A607B6880
:10462000012283F835207B68002283F834207B68E0
:104630001B6D002B00F04A837B681B6D78689847E0
:1046400044E37B681B681B6803F48023002B18D0AD
:104650007B681B681B6803F40023002B08D17B6870
:104660005B6C002B2CD07B685B6C7868984727E0EC
:104670007B68DB6B002B23D07B68DB6B786898470B
:104680001EE07B681B681B6803F48073002B0FD14E
:104690007B681B681A687B681B6822F010021A602E
:1046A0007B68012283F835207B68002283F8342060
:1046B0007B68DB6B002B03D07B68DB6B78689847EB
:1046C0007B685B6D002B00F006837B685B6D03F0FD
:1046D0000103002B00F088807B68042283F83520DA
:1046E0007B681B687A4A93424AD07B681B68794A88
:1046F000934245D07B681B68774A934240D07B68E1
:104700001B68764A93423BD07B681B68744A93428D
:1047100036D07B681B68734A934231D07B681B6834
:10472000714A93422CD07B681B68704A934227D011
:104730007B681B686E4A934222D07B681B686D4A77
:1047400093421DD07B681B686B4A934218D07B68EC
:104750001B686A4A934213D07B681B68684A93427D
:104760000ED07B681B68674A934209D07B681B6840
:10477000654A934204D07B681B68644A934208D11F
:104780007B681B681A687B681B6822F001021A604C
:1047900007E07B681B681A687B681B6822F00102CF
:1047A0001A60FB680133FB607A6A9A4207D37B6820
:1047B0001B681B6803F00103002BF2D100E000BF6F
:1047C0007B681B681B6803F00103002B04D07B6827
:1047D000032283F8352003E07B68012283F835202B
:1047E0007B68002283F834207B68DB6C002B00F0B0
:1047F00072827B68DB6C786898476CE27B681B6828
:10480000434A934222D07B681B68424A93421DD0A0
:104810007B681B68404A934218D07B681B683F4AFC
:10482000934213D07B681B683D4A93420ED07B684D
:104830001B683C4A934209D07B681B683A4A934202
:1048400004D07B681B68394A934201D1012300E000
:104850000023002B00F03F827B681B681B683B61D4
:104860007B68DB6D03F01F0304229A407B691340D1
:10487000002B00F0CD803B6903F00403002B00F017
:10488000C7807B68DB6D03F01F0304229A40FB693D
:104890005A603B6903F40043002B49D03B6903F4A1
:1048A0008033002B09D17B689B6C002B00F01082B9
:1048B0007B689B6C786898470AE27B681B6C002BCE
:1048C00000F006827B681B6C7868984700E200BFA6
:1048D0001000024028000240400002405800024000
:1048E0007000024088000240A0000240B800024070
:1048F00010040240280402404004024058040240D0
:104900007004024088040240A0040240B80402403F
:10491000085402581C540258305402584454025847
:10492000585402586C5402588054025894540258F7
:104930003B6903F02003002B60D17B681B687F4A32
:1049400093424AD07B681B687D4A934245D07B687E
:104950001B687C4A934240D07B681B687A4A93422A
:104960003BD07B681B68794A934236D07B681B68D2
:10497000774A934231D07B681B68764A93422CD0A9
:104980007B681B68744A934227D07B681B68734A14
:10499000934222D07B681B68714A93421DD07B688A
:1049A0001B68704A934218D07B681B686E4A93421A
:1049B00013D07B681B686D4A93420ED07B681B68DE
:1049C0006B4A934209D07B681B686A4A934204D0C1
:1049D0007B681B68684A934208D17B681B681A6829
:1049E0007B681B6822F008021A6007E07B681B687E
:1049F0001A687B681B6822F004021A607B681B6CD3
:104A0000002B00F065817B681B6C786898475FE13C
:104A10007B68DB6D03F01F0302229A407B69134021
:104A2000002B00F0C5803B6903F00203002B00F06F
:104A3000BF807B68DB6D03F01F0302229A40FB6995
:104A40005A603B6903F40043002B18D03B6903F420
:104A50008033002B09D17B685B6C002B00F03A811E
:104A60007B685B6C7868984734E17B68DB6B002B74
:104A700000F030817B68DB6B786898472AE13B69FE
:104A800003F02003002B40F089807B681B682B4AD1
:104A900093424AD07B681B68294A934245D07B6881
:104AA0001B68284A934240D07B681B68264A934281
:104AB0003BD07B681B68254A934236D07B681B68D5
:104AC000234A934231D07B681B68224A93422CD000
:104AD0007B681B68204A934227D07B681B681F4A6B
:104AE000934222D07B681B681D4A93421DD07B688D
:104AF0001B681C4A934218D07B681B681A4A934271
:104B000013D07B681B68194A93420ED07B681B68E0
:104B1000174A934209D07B681B68164A934204D017
:104B20007B681B68144A934228D17B681B681A680B
:104B30007B681B6822F014021A6027E01000024014
:104B4000280002404000024058000240700002402D
:104B500088000240A0000240B80002401004024059
:104B600028040240400402405804024070040240FD
:104B700088040240A0040240B80402407B681B681D
:104B80001A687B681B6822F00A021A607B6801229F
:104B900083F835207B68002283F834207B68DB6B48
:104BA000002B00F097807B68DB6B7868984791E07A
:104BB0007B68DB6D03F01F0308229A407B6913407A
:104BC000002B00F088803B6903F00803002B00F005
:104BD00082807B681B68414A93424AD07B681B688D
:104BE0003F4A934245D07B681B683E4A934240D07F
:104BF0007B681B683C4A93423BD07B681B683B4AFE
:104C0000934236D07B681B68394A934231D07B6827
:104C10001B68384A93422CD07B681B68364A934203
:104C200027D07B681B68354A934222D07B681B687B
:104C3000334A93421DD07B681B68324A934218D096
:104C40007B681B68304A934213D07B681B682F4AED
:104C500093420ED07B681B682D4A934209D07B6833
:104C60001B682C4A934204D07B681B682A4A9342F3
:104C700008D17B681B681A687B681B6822F01C02DD
:104C80001A6007E07B681B681A687B681B6822F063
:104C90000E021A607B68DB6D03F01F0301229A404D
:104CA000FB695A607B6801225A657B68012283F8A0
:104CB00035207B68002283F834207B68DB6C002B76
:104CC00009D07B68DB6C7868984704E000BF02E09D
:104CD00000BF00E000BF2837BD4680BD1000024085
:104CE000280002404000024058000240700002408C
:104CF00088000240A0000240B800024010040240B8
:104D0000280402404004024058040240700402405B
:104D100088040240A0040240B804024080B485B078
:104D200000AF78607B681B68424A93424AD07B6838
:104D30001B68414A934245D07B681B683F4A9342B7
:104D400040D07B681B683E4A93423BD07B681B681F
:104D50003C4A934236D07B681B683B4A934231D031
:104D60007B681B68394A93422CD07B681B68384AA1
:104D7000934227D07B681B68364A934222D07B68D7
:104D80001B68354A93421DD07B681B68334A9342A7
:104D900018D07B681B68324A934213D07B681B682B
:104DA000304A93420ED07B681B682F4A934209D049
:104DB0007B681B682D4A934204D07B681B682C4A91
:104DC000934201D1012300E00023002B24D07B6813
:104DD0001B68DBB2103B274AA2FB03231B09FB60C5
:104DE000FB6803F00703244AD35C1A467B68DA6544
:104DF000FB68032B08D97B681B681A461F4B1340BE
:104E00001A1D7B689A650DE07B681B681A461B4B70
:104E100013407A68936505E07B681B6823F0FF0206
:104E20007B689A657B689B6D18461437BD465DF8B4
:104E3000047B7047100002402800024040000240FE
:104E4000580002407000024088000240A00002406A
:104E5000B80002401004024028040240400402400E
:104E6000580402407004024088040240A00402403A
:104E7000B8040240ABAAAAAABC95030800FCFFFF35
:104E800080B485B000AF78600023FB737B689B69BA
:104E9000002B20D17B689B6A032B58D801A252F8C3
:104EA00023F000BFB54E0008C74E0008B54E0008FD
:104EB0004F4F00087B68DB6A03F08073002B48D0FB
:104EC0000123FB7345E07B68DB6AB3F1C07F42D10D
:104ED0000123FB733FE07B689B69B3F5005F23D13F
:104EE0007B689B6A032B38D801A252F823F000BFDD
:104EF000014F0008074F0008014F0008194F000834
:104F00000123FB7330E07B68DB6A03F08073002BC6
:104F100025D00123FB7322E07B68DB6AB3F1C07FFD
:104F20001FD10123FB731CE07B689B6A022B02D913
:104F3000032B03D018E00123FB7315E07B68DB6AC9
:104F400003F08073002B0ED00123FB730BE000BF36
:104F50000AE000BF08E000BF06E000BF04E000BFB9
:104F600002E000BF00E000BFFB7B18461437BD46DF
:104F70005DF8047B704700BF80B485B000AF7860F7
:104F80007B681B68BB607B681B68384A934222D0F1
:104F90007B681B68364A93421DD07B681B68354A84
:104FA000934218D07B681B68334A934213D07B68C6
:104FB0001B68324A93420ED07B681B68304A93428A
:104FC00009D07B681B682F4A934204D07B681B681A
:104FD0002D4A934201D1012300E00023002B1AD077
:104FE0007B681B68DBB2083B284AA2FB03231B0932
:104FF000FB60FA68264B13449B001A467B681A66CE
:105000007B68244A5A66FB6803F01F0301229A401A
:105010007B689A6624E07B681B68DBB2103B1E4A03
:10502000A2FB03231B09FB60BB681C4A934206D802
:10503000BB681B4A934202D9FB680833FB60FA68DD
:10504000184B13449B001A467B681A667B68164A05
:105050005A66FB6803F01F0301229A407B689A6638
:1050600000BF1437BD465DF8047B704708540258F2
:105070001C54025830540258445402585854025890
:105080006C5402588054025894540258CDCCCCCC65
:105090000096001680580258ABAAAAAAB80402408B
:1050A0000F040240008200108008024080B485B0E6
:1050B00000AF78607B685B68DBB2FB60FB68002B4D
:1050C0004AD0FB68082B47D87B681B68254A934267
:1050D00022D07B681B68244A93421DD07B681B68E2
:1050E000224A934218D07B681B68214A934213D00E
:1050F0007B681B681F4A93420ED07B681B681E4A60
:10510000934209D07B681B681C4A934204D07B6899
:105110001B681B4A934201D1012300E00023002BAE
:105120000AD0FA68174B13449B001A467B68DA666C
:105130007B68154A1A6709E0FA68144B13449B0010
:105140001A467B68DA667B68114A1A67FB68013B7E
:1051500001229A407B685A6700BF1437BD465DF84C
:10516000047B7047085402581C54025830540258AB
:1051700044540258585402586C54025880540258EF
:10518000945402583F960016405902583F8200102E
:105190004009024080B489B000AF786039600023D4
:1051A000FB61864B7B618CE13B681A680121FB69DE
:1051B00001FA03F313403B613B69002B00F07E8151
:1051C0003B685B6803F00303012B05D03B685B6819
:1051D00003F00303022B30D17B689B68BB61FB6942
:1051E0005B00032202FA03F3DB43BA691340BB619D
:1051F0003B68DA68FB695B0002FA03F3BA691343A0
:10520000BB617B68BA699A607B685B68BB6101229D
:10521000FB6902FA03F3DB43BA691340BB613B68E5
:105220005B681B0903F00102FB6902FA03F3BA6928
:105230001343BB617B68BA695A603B685B6803F0E3
:105240000303032B17D07B68DB68BB61FB695B0042
:10525000032202FA03F3DB43BA691340BB613B68E4
:105260009A68FB695B0002FA03F3BA691343BB61F6
:105270007B68BA69DA603B685B6803F00303022B62
:1052800023D1FB69DA087B68083253F82230BB610E
:10529000FB6903F007039B000F2202FA03F3DB43D1
:1052A000BA691340BB613B681A69FB6903F00703E5
:1052B0009B0002FA03F3BA691343BB61FB69DA0886
:1052C0007B680832B96943F822107B681B68BB61B0
:1052D000FB695B00032202FA03F3DB43BA69134064
:1052E000BB613B685B6803F00302FB695B0002FA89
:1052F00003F3BA691343BB617B68BA691A603B6800
:105300005B6803F44033002B00F0D8802C4BD3F8BB
:10531000F4302B4A43F00203C2F8F430284BD3F8A0
:10532000F43003F00203FB60FB68264AFB699B082C
:10533000023352F82330BB61FB6903F003039B0087
:105340000F2202FA03F3DB43BA691340BB617B68A7
:105350001D4A93424AD07B681C4A93422BD07B68FB
:105360001B4A934225D07B681A4A93421FD07B6820
:10537000194A934219D07B68184A934213D07B682C
:10538000174A93420DD07B68164A934207D07B6838
:10539000154A934201D1092329E00A2327E0072374
:1053A00025E0062323E0052321E004231FE0032357
:1053B0001DE002231BE0012319E000BF800000581C
:1053C000004402580004005800000258000402582B
:1053D00000080258000C025800100258001402582D
:1053E00000180258001C0258002402580023FA69D1
:1053F00002F0030292009340BA691343BB6138493B
:10540000FB699B080233BA6941F823204FF0B0438F
:105410001B68BB613B69DB43BA691340BB613B68F6
:105420005B6803F48013002B03D0BA693B69134314
:10543000BB614FF0B042BB6913604FF0B0435B6893
:10544000BB613B69DB43BA691340BB613B685B6886
:1054500003F40013002B03D0BA693B691343BB610B
:105460004FF0B042BB6953607B695B68BB613B69CD
:10547000DB43BA691340BB613B685B6803F40033EC
:10548000002B03D0BA693B691343BB617B69BA69DE
:105490005A607B691B68BB613B69DB43BA69134097
:1054A000BB613B685B6803F48033002B03D0BA69AF
:1054B0003B691343BB617B69BA691A60FB690133BD
:1054C000FB613B681A68FB6922FA03F3002B7FF447
:1054D0006BAE00BF00BF2437BD465DF8047B70474C
:1054E0000004005880B483B000AF78600B467B8026
:1054F00013467B707B78002B03D07A887B689A6197
:1055000003E07B881A047B689A6100BF0C37BD46B4
:105510005DF8047B7047000080B584B000AF786010
:10552000194BDB6803F00403042B0AD0164BDB682D
:1055300003F007037A689A4201D001231FE0002399
:105540001DE0114BDB6823F007020F497B68134312
:10555000CB60FCF743F9F86009E0FCF73FF902463D
:10556000FB68D31AB3F57A7F01D9012307E0064B14
:105570005B6803F40053B3F5005FEED100231846D7
:105580001037BD4680BD00BF0048025880B58CB0C2
:1055900000AF78607B68002B01D10123C8E37B68F2
:1055A0001B6803F00103002B00F08780884B1B6908
:1055B00003F03803FB62864B9B6ABB62FB6A102BCD
:1055C00007D0FB6A182B10D1BB6A03F00303022B30
:1055D0000BD17F4B1B6803F40033002B6CD07B682E
:1055E0005B68002B68D10123A2E37B685B68B3F59D
:1055F000803F06D1764B1B68754A43F480331360B5
:105600002EE07B685B68002B0CD1714B1B68704AE5
:1056100023F4803313606E4B1B686D4A23F48023A0
:1056200013601DE07B685B68B3F5A02F0CD1684B5D
:105630001B68674A43F480231360654B1B68644A08
:1056400043F4803313600BE0614B1B68604A23F422
:10565000803313605E4B1B685D4A23F48023136024
:105660007B685B68002B13D0FCF7B8F8786208E021
:10567000FCF7B4F802467B6AD31A642B01D90323E2
:1056800056E3534B1B6803F40033002BF0D014E0B7
:10569000FCF7A4F8786208E0FCF7A0F802467B6A01
:1056A000D31A642B01D9032342E3494B1B6803F44B
:1056B0000033002BF0D100E000BF7B681B6803F0D3
:1056C0000203002B00F08C80414B1B6903F0380370
:1056D0003B623F4B9B6AFB613B6A002B07D03B6AF6
:1056E000182B37D1FB6903F00303002B32D1384B61
:1056F0001B6803F00403002B05D07B68DB68002BDC
:1057000001D1012314E3324B1B6823F019027B689B
:10571000DB682F4913430B60FCF760F8786208E000
:10572000FCF75CF802467B6AD31A022B01D90323EB
:10573000FEE2274B1B6803F00403002BF0D0244B40
:105740005B6823F0FE427B681B691B0620491343FC
:105750004B6045E07B68DB68002B26D01C4B1B6848
:1057600023F019027B68DB68194913430B60FCF7CF
:1057700035F8786208E0FCF731F802467B6AD31A04
:10578000022B01D90323D3E2114B1B6803F004035E
:10579000002BF0D00E4B5B6823F0FE427B681B6948
:1057A0001B060B4913434B601AE0094B1B68084A60
:1057B00023F001031360FCF711F878620AE0FCF7AC
:1057C0000DF802467B6AD31A022B03D90323AFE2FA
:1057D00000440258964B1B6803F00403002BEED1E3
:1057E0007B681B6803F01003002B6AD0904B1B6989
:1057F00003F03803BB618E4B9B6A7B61BB69082B4E
:1058000007D0BB69182B1BD17B6903F00303012B65
:1058100016D1874B1B6803F48073002B05D07B687F
:10582000DB69802B01D0012382E2814BDB6823F00E
:105830007C527B681B6A1B067D491343CB6040E0AA
:105840007B68DB69002B23D0794B1B68784A43F0D7
:1058500080031360FBF7C2FF786208E0FBF7BEFF2E
:1058600002467B6AD31A022B01D9032360E2704BF4
:105870001B6803F48073002BF0D06D4BDB6823F0C2
:105880007C527B681B6A1B0669491343CB6018E096
:10589000674B1B68664A23F080031360FBF79EFF8B
:1058A000786208E0FBF79AFF02467B6AD31A022B64
:1058B00001D903233CE25E4B1B6803F48073002B89
:1058C000F0D17B681B6803F00803002B36D07B689F
:1058D0005B69002B19D0564B5B6F554A43F00103AF
:1058E0005367FBF77BFF786208E0FBF777FF024620
:1058F0007B6AD31A022B01D9032319E24C4B5B6F4D
:1059000003F00203002BF0D018E0494B5B6F484ACC
:1059100023F001035367FBF761FF786208E0FBF7B0
:105920005DFF02467B6AD31A022B01D90323FFE1F4
:105930003F4B5B6F03F00203002BF0D17B681B68C9
:1059400003F02003002B36D07B689B69002B19D015
:10595000374B1B68364A43F480531360FBF73EFF16
:10596000786208E0FBF73AFF02467B6AD31A022B03
:1059700001D90323DCE12E4B1B6803F40053002BF9
:10598000F0D018E02A4B1B68294A23F48053136097
:10599000FBF724FF786208E0FBF720FF02467B6AF2
:1059A000D31A022B01D90323C2E1214B1B6803F454
:1059B0000053002BF0D17B681B6803F00403002B1D
:1059C00000F086801B4B1B681A4A43F480731360F7
:1059D000FBF704FF786208E0FBF700FF02467B6AF2
:1059E000D31A642B01D90323A2E1124B1B6803F4E1
:1059F0008073002BF0D07B689B68012B06D10C4B89
:105A00001B6F0B4A43F00103136732E07B689B680E
:105A1000002B11D1064B1B6F054A23F001031367BE
:105A2000034B1B6F024A23F00403136721E000BFFE
:105A300000440258004802587B689B68052B0CD133
:105A4000834B1B6F824A43F004031367804B1B6F29
:105A50007F4A43F0010313670BE07D4B1B6F7C4AC9
:105A600023F0010313677A4B1B6F794A23F0040379
:105A700013677B689B68002B15D0FBF7AFFE78623D
:105A80000AE0FBF7ABFE02467B6AD31A41F288328A
:105A9000934201D903234BE16D4B1B6F03F00203CB
:105AA000002BEED014E0FBF799FE78620AE0FBF7DA
:105AB00095FE02467B6AD31A41F28832934201D99D
:105AC000032335E1624B1B6F03F00203002BEED181
:105AD0007B685B6A002B00F02A815D4B1B6903F039
